{
  "_format": "hh-sol-artifact-1",
  "contractName": "WidgetsFactory",
  "sourceName": "contracts/WidgetsFactory.sol",
  "abi": [
    {
      "inputs": [],
      "stateMutability": "nonpayable",
      "type": "constructor"
    },
    {
      "anonymous": false,
      "inputs": [
        {
          "indexed": true,
          "internalType": "address",
          "name": "owner",
          "type": "address"
        },
        {
          "indexed": true,
          "internalType": "address",
          "name": "spender",
          "type": "address"
        },
        {
          "indexed": false,
          "internalType": "uint256",
          "name": "value",
          "type": "uint256"
        }
      ],
      "name": "Approval",
      "type": "event"
    },
    {
      "anonymous": false,
      "inputs": [
        {
          "indexed": true,
          "internalType": "address",
          "name": "previousOwner",
          "type": "address"
        },
        {
          "indexed": true,
          "internalType": "address",
          "name": "newOwner",
          "type": "address"
        }
      ],
      "name": "OwnershipTransferred",
      "type": "event"
    },
    {
      "anonymous": false,
      "inputs": [
        {
          "indexed": true,
          "internalType": "address",
          "name": "from",
          "type": "address"
        },
        {
          "indexed": true,
          "internalType": "address",
          "name": "to",
          "type": "address"
        },
        {
          "indexed": false,
          "internalType": "uint256",
          "name": "value",
          "type": "uint256"
        }
      ],
      "name": "Transfer",
      "type": "event"
    },
    {
      "inputs": [
        {
          "internalType": "address",
          "name": "recipient",
          "type": "address"
        },
        {
          "internalType": "uint256",
          "name": "amount",
          "type": "uint256"
        }
      ],
      "name": "InventoryManagement",
      "outputs": [],
      "stateMutability": "nonpayable",
      "type": "function"
    },
    {
      "inputs": [
        {
          "internalType": "address",
          "name": "orderer",
          "type": "address"
        },
        {
          "internalType": "uint256",
          "name": "amount",
          "type": "uint256"
        }
      ],
      "name": "OrderPurchase",
      "outputs": [],
      "stateMutability": "payable",
      "type": "function"
    },
    {
      "inputs": [],
      "name": "OrderShip",
      "outputs": [],
      "stateMutability": "nonpayable",
      "type": "function"
    },
    {
      "inputs": [
        {
          "internalType": "uint256",
          "name": "",
          "type": "uint256"
        }
      ],
      "name": "_acceptedOrder",
      "outputs": [
        {
          "internalType": "address",
          "name": "",
          "type": "address"
        }
      ],
      "stateMutability": "view",
      "type": "function"
    },
    {
      "inputs": [
        {
          "internalType": "address",
          "name": "",
          "type": "address"
        }
      ],
      "name": "_acceptedShip",
      "outputs": [
        {
          "internalType": "uint256",
          "name": "",
          "type": "uint256"
        }
      ],
      "stateMutability": "view",
      "type": "function"
    },
    {
      "inputs": [
        {
          "internalType": "address",
          "name": "user",
          "type": "address"
        }
      ],
      "name": "_addManager",
      "outputs": [],
      "stateMutability": "nonpayable",
      "type": "function"
    },
    {
      "inputs": [],
      "name": "_currentOrderId",
      "outputs": [
        {
          "internalType": "uint256",
          "name": "",
          "type": "uint256"
        }
      ],
      "stateMutability": "view",
      "type": "function"
    },
    {
      "inputs": [
        {
          "internalType": "address",
          "name": "user",
          "type": "address"
        }
      ],
      "name": "_deleteManager",
      "outputs": [],
      "stateMutability": "nonpayable",
      "type": "function"
    },
    {
      "inputs": [],
      "name": "_getAmount",
      "outputs": [
        {
          "internalType": "uint256",
          "name": "",
          "type": "uint256"
        }
      ],
      "stateMutability": "view",
      "type": "function"
    },
    {
      "inputs": [],
      "name": "_lastShippedOrder",
      "outputs": [
        {
          "internalType": "uint256",
          "name": "",
          "type": "uint256"
        }
      ],
      "stateMutability": "view",
      "type": "function"
    },
    {
      "inputs": [
        {
          "internalType": "address",
          "name": "",
          "type": "address"
        }
      ],
      "name": "_managers",
      "outputs": [
        {
          "internalType": "bool",
          "name": "",
          "type": "bool"
        }
      ],
      "stateMutability": "view",
      "type": "function"
    },
    {
      "inputs": [
        {
          "internalType": "uint256",
          "name": "",
          "type": "uint256"
        }
      ],
      "name": "_shipedOrder",
      "outputs": [
        {
          "internalType": "address",
          "name": "",
          "type": "address"
        }
      ],
      "stateMutability": "view",
      "type": "function"
    },
    {
      "inputs": [
        {
          "internalType": "address",
          "name": "owner",
          "type": "address"
        },
        {
          "internalType": "address",
          "name": "spender",
          "type": "address"
        }
      ],
      "name": "allowance",
      "outputs": [
        {
          "internalType": "uint256",
          "name": "",
          "type": "uint256"
        }
      ],
      "stateMutability": "view",
      "type": "function"
    },
    {
      "inputs": [
        {
          "internalType": "address",
          "name": "spender",
          "type": "address"
        },
        {
          "internalType": "uint256",
          "name": "amount",
          "type": "uint256"
        }
      ],
      "name": "approve",
      "outputs": [
        {
          "internalType": "bool",
          "name": "",
          "type": "bool"
        }
      ],
      "stateMutability": "nonpayable",
      "type": "function"
    },
    {
      "inputs": [
        {
          "internalType": "address",
          "name": "account",
          "type": "address"
        }
      ],
      "name": "balanceOf",
      "outputs": [
        {
          "internalType": "uint256",
          "name": "",
          "type": "uint256"
        }
      ],
      "stateMutability": "view",
      "type": "function"
    },
    {
      "inputs": [],
      "name": "decimals",
      "outputs": [
        {
          "internalType": "uint8",
          "name": "",
          "type": "uint8"
        }
      ],
      "stateMutability": "view",
      "type": "function"
    },
    {
      "inputs": [
        {
          "internalType": "address",
          "name": "spender",
          "type": "address"
        },
        {
          "internalType": "uint256",
          "name": "subtractedValue",
          "type": "uint256"
        }
      ],
      "name": "decreaseAllowance",
      "outputs": [
        {
          "internalType": "bool",
          "name": "",
          "type": "bool"
        }
      ],
      "stateMutability": "nonpayable",
      "type": "function"
    },
    {
      "inputs": [
        {
          "internalType": "address",
          "name": "spender",
          "type": "address"
        },
        {
          "internalType": "uint256",
          "name": "addedValue",
          "type": "uint256"
        }
      ],
      "name": "increaseAllowance",
      "outputs": [
        {
          "internalType": "bool",
          "name": "",
          "type": "bool"
        }
      ],
      "stateMutability": "nonpayable",
      "type": "function"
    },
    {
      "inputs": [],
      "name": "name",
      "outputs": [
        {
          "internalType": "string",
          "name": "",
          "type": "string"
        }
      ],
      "stateMutability": "view",
      "type": "function"
    },
    {
      "inputs": [],
      "name": "owner",
      "outputs": [
        {
          "internalType": "address",
          "name": "",
          "type": "address"
        }
      ],
      "stateMutability": "view",
      "type": "function"
    },
    {
      "inputs": [],
      "name": "renounceOwnership",
      "outputs": [],
      "stateMutability": "nonpayable",
      "type": "function"
    },
    {
      "inputs": [],
      "name": "symbol",
      "outputs": [
        {
          "internalType": "string",
          "name": "",
          "type": "string"
        }
      ],
      "stateMutability": "view",
      "type": "function"
    },
    {
      "inputs": [],
      "name": "totalSupply",
      "outputs": [
        {
          "internalType": "uint256",
          "name": "",
          "type": "uint256"
        }
      ],
      "stateMutability": "view",
      "type": "function"
    },
    {
      "inputs": [
        {
          "internalType": "address",
          "name": "to",
          "type": "address"
        },
        {
          "internalType": "uint256",
          "name": "amount",
          "type": "uint256"
        }
      ],
      "name": "transfer",
      "outputs": [
        {
          "internalType": "bool",
          "name": "",
          "type": "bool"
        }
      ],
      "stateMutability": "nonpayable",
      "type": "function"
    },
    {
      "inputs": [
        {
          "internalType": "address",
          "name": "from",
          "type": "address"
        },
        {
          "internalType": "address",
          "name": "to",
          "type": "address"
        },
        {
          "internalType": "uint256",
          "name": "amount",
          "type": "uint256"
        }
      ],
      "name": "transferFrom",
      "outputs": [
        {
          "internalType": "bool",
          "name": "",
          "type": "bool"
        }
      ],
      "stateMutability": "nonpayable",
      "type": "function"
    },
    {
      "inputs": [
        {
          "internalType": "address",
          "name": "newOwner",
          "type": "address"
        }
      ],
      "name": "transferOwnership",
      "outputs": [],
      "stateMutability": "nonpayable",
      "type": "function"
    }
  ],
  "bytecode": "0x60806040526000600b556000600c553480156200001b57600080fd5b506040518060400160405280600e81526020017f57696467657473466163746f72790000000000000000000000000000000000008152506040518060400160405280600781526020017f5769646765747300000000000000000000000000000000000000000000000000815250816003908162000099919062000553565b508060049081620000ab919062000553565b505050620000ce620000c2620000e560201b60201c565b620000ed60201b60201c565b620000df33620001b360201b60201c565b620006bd565b600033905090565b6000600560009054906101000a900473ffffffffffffffffffffffffffffffffffffffff16905081600560006101000a81548173ffffffffffffffffffffffffffffffffffffffff021916908373ffffffffffffffffffffffffffffffffffffffff1602179055508173ffffffffffffffffffffffffffffffffffffffff168173ffffffffffffffffffffffffffffffffffffffff167f8be0079c531659141344cd1fd0a4f28419497f9722a3daafe3b4186f6b6457e060405160405180910390a35050565b620001c36200021e60201b60201c565b6001600660008373ffffffffffffffffffffffffffffffffffffffff1673ffffffffffffffffffffffffffffffffffffffff16815260200190815260200160002060006101000a81548160ff02191690831515021790555050565b6200022e620000e560201b60201c565b73ffffffffffffffffffffffffffffffffffffffff1662000254620002af60201b60201c565b73ffffffffffffffffffffffffffffffffffffffff1614620002ad576040517f08c379a0000000000000000000000000000000000000000000000000000000008152600401620002a4906200069b565b60405180910390fd5b565b6000600560009054906101000a900473ffffffffffffffffffffffffffffffffffffffff16905090565b600081519050919050565b7f4e487b7100000000000000000000000000000000000000000000000000000000600052604160045260246000fd5b7f4e487b7100000000000000000000000000000000000000000000000000000000600052602260045260246000fd5b600060028204905060018216806200035b57607f821691505b60208210810362000371576200037062000313565b5b50919050565b60008190508160005260206000209050919050565b60006020601f8301049050919050565b600082821b905092915050565b600060088302620003db7fffffffffffffffffffffffffffffffffffffffffffffffffffffffffffffffff826200039c565b620003e786836200039c565b95508019841693508086168417925050509392505050565b6000819050919050565b6000819050919050565b6000620004346200042e6200042884620003ff565b62000409565b620003ff565b9050919050565b6000819050919050565b620004508362000413565b620004686200045f826200043b565b848454620003a9565b825550505050565b600090565b6200047f62000470565b6200048c81848462000445565b505050565b5b81811015620004b457620004a860008262000475565b60018101905062000492565b5050565b601f8211156200050357620004cd8162000377565b620004d8846200038c565b81016020851015620004e8578190505b62000500620004f7856200038c565b83018262000491565b50505b505050565b600082821c905092915050565b6000620005286000198460080262000508565b1980831691505092915050565b600062000543838362000515565b9150826002028217905092915050565b6200055e82620002d9565b67ffffffffffffffff8111156200057a5762000579620002e4565b5b62000586825462000342565b62000593828285620004b8565b600060209050601f831160018114620005cb5760008415620005b6578287015190505b620005c2858262000535565b86555062000632565b601f198416620005db8662000377565b60005b828110156200060557848901518255600182019150602085019450602081019050620005de565b8683101562000625578489015162000621601f89168262000515565b8355505b6001600288020188555050505b505050505050565b600082825260208201905092915050565b7f4f776e61626c653a2063616c6c6572206973206e6f7420746865206f776e6572600082015250565b6000620006836020836200063a565b915062000690826200064b565b602082019050919050565b60006020820190508181036000830152620006b68162000674565b9050919050565b61258080620006cd6000396000f3fe6080604052600436106101815760003560e01c80638da5cb5b116100d1578063d5d31abe1161008a578063e3aba7ee11610064578063e3aba7ee146105d4578063f2fde38b146105fd578063f4d241cb14610626578063f8a661321461064f57610181565b8063d5d31abe14610531578063da5fa8901461056e578063dd62ed3e1461059757610181565b80638da5cb5b1461040d57806395d89b4114610438578063a457c2d714610463578063a52be0bd146104a0578063a9059cbb146104dd578063b01cbf581461051a57610181565b8063313ce5671161013e5780633e833c13116101185780633e833c1314610363578063453ec0be1461038e57806370a08231146103b9578063715018a6146103f657610181565b8063313ce567146102d057806339509351146102fb5780633d13c33b1461033857610181565b806306fdde0314610186578063095ea7b3146101b157806312038f8c146101ee57806318160ddd1461022b57806323b872dd146102565780632d5d93d414610293575b600080fd5b34801561019257600080fd5b5061019b61066b565b6040516101a8919061190a565b60405180910390f35b3480156101bd57600080fd5b506101d860048036038101906101d391906119c5565b6106fd565b6040516101e59190611a20565b60405180910390f35b3480156101fa57600080fd5b5061021560048036038101906102109190611a3b565b610720565b6040516102229190611a77565b60405180910390f35b34801561023757600080fd5b50610240610738565b60405161024d9190611a77565b60405180910390f35b34801561026257600080fd5b5061027d60048036038101906102789190611a92565b610742565b60405161028a9190611a20565b60405180910390f35b34801561029f57600080fd5b506102ba60048036038101906102b59190611ae5565b610771565b6040516102c79190611b21565b60405180910390f35b3480156102dc57600080fd5b506102e56107a4565b6040516102f29190611b58565b60405180910390f35b34801561030757600080fd5b50610322600480360381019061031d91906119c5565b6107ad565b60405161032f9190611a20565b60405180910390f35b34801561034457600080fd5b5061034d6107e4565b60405161035a9190611a77565b60405180910390f35b34801561036f57600080fd5b506103786107ee565b6040516103859190611a77565b60405180910390f35b34801561039a57600080fd5b506103a36107f4565b6040516103b09190611a77565b60405180910390f35b3480156103c557600080fd5b506103e060048036038101906103db9190611a3b565b6107fa565b6040516103ed9190611a77565b60405180910390f35b34801561040257600080fd5b5061040b610842565b005b34801561041957600080fd5b50610422610856565b60405161042f9190611b21565b60405180910390f35b34801561044457600080fd5b5061044d610880565b60405161045a919061190a565b60405180910390f35b34801561046f57600080fd5b5061048a600480360381019061048591906119c5565b610912565b6040516104979190611a20565b60405180910390f35b3480156104ac57600080fd5b506104c760048036038101906104c29190611ae5565b610989565b6040516104d49190611b21565b60405180910390f35b3480156104e957600080fd5b5061050460048036038101906104ff91906119c5565b6109bc565b6040516105119190611a20565b60405180910390f35b34801561052657600080fd5b5061052f6109df565b005b34801561053d57600080fd5b5061055860048036038101906105539190611a3b565b610c07565b6040516105659190611a20565b60405180910390f35b34801561057a57600080fd5b5061059560048036038101906105909190611a3b565b610c27565b005b3480156105a357600080fd5b506105be60048036038101906105b99190611b73565b610c8a565b6040516105cb9190611a77565b60405180910390f35b3480156105e057600080fd5b506105fb60048036038101906105f691906119c5565b610d11565b005b34801561060957600080fd5b50610624600480360381019061061f9190611a3b565b610e0e565b005b34801561063257600080fd5b5061064d60048036038101906106489190611a3b565b610e91565b005b610669600480360381019061066491906119c5565b610ef4565b005b60606003805461067a90611be2565b80601f01602080910402602001604051908101604052809291908181526020018280546106a690611be2565b80156106f35780601f106106c8576101008083540402835291602001916106f3565b820191906000526020600020905b8154815290600101906020018083116106d657829003601f168201915b5050505050905090565b6000806107086110f1565b90506107158185856110f9565b600191505092915050565b60096020528060005260406000206000915090505481565b6000600254905090565b60008061074d6110f1565b905061075a8582856112c2565b61076585858561134e565b60019150509392505050565b60086020528060005260406000206000915054906101000a900473ffffffffffffffffffffffffffffffffffffffff1681565b60006012905090565b6000806107b86110f1565b90506107d98185856107ca8589610c8a565b6107d49190611c42565b6110f9565b600191505092915050565b6000600754905090565b600b5481565b600c5481565b60008060008373ffffffffffffffffffffffffffffffffffffffff1673ffffffffffffffffffffffffffffffffffffffff168152602001908152602001600020549050919050565b61084a6115cd565b610854600061164b565b565b6000600560009054906101000a900473ffffffffffffffffffffffffffffffffffffffff16905090565b60606004805461088f90611be2565b80601f01602080910402602001604051908101604052809291908181526020018280546108bb90611be2565b80156109085780601f106108dd57610100808354040283529160200191610908565b820191906000526020600020905b8154815290600101906020018083116108eb57829003601f168201915b5050505050905090565b60008061091d6110f1565b9050600061092b8286610c8a565b905083811015610970576040517f08c379a000000000000000000000000000000000000000000000000000000000815260040161096790611ce8565b60405180910390fd5b61097d82868684036110f9565b60019250505092915050565b600a6020528060005260406000206000915054906101000a900473ffffffffffffffffffffffffffffffffffffffff1681565b6000806109c76110f1565b90506109d481858561134e565b600191505092915050565b60011515600660003373ffffffffffffffffffffffffffffffffffffffff1673ffffffffffffffffffffffffffffffffffffffff16815260200190815260200160002060009054906101000a900460ff16151514610a72576040517f08c379a0000000000000000000000000000000000000000000000000000000008152600401610a6990611d54565b60405180910390fd5b6000600b54600c54610a849190611d74565b90506000811115610c045760005b81811015610c025760086000600b54815260200190815260200160002060009054906101000a900473ffffffffffffffffffffffffffffffffffffffff16600a6000600b54815260200190815260200160002060006101000a81548173ffffffffffffffffffffffffffffffffffffffff021916908373ffffffffffffffffffffffffffffffffffffffff160217905550610bd73060086000600b54815260200190815260200160002060009054906101000a900473ffffffffffffffffffffffffffffffffffffffff166009600060086000600b54815260200190815260200160002060009054906101000a900473ffffffffffffffffffffffffffffffffffffffff1673ffffffffffffffffffffffffffffffffffffffff1673ffffffffffffffffffffffffffffffffffffffff1681526020019081526020016000205461134e565b600b6000815480929190610bea90611da8565b91905055508080610bfa90611da8565b915050610a92565b505b50565b60066020528060005260406000206000915054906101000a900460ff1681565b610c2f6115cd565b6001600660008373ffffffffffffffffffffffffffffffffffffffff1673ffffffffffffffffffffffffffffffffffffffff16815260200190815260200160002060006101000a81548160ff02191690831515021790555050565b6000600160008473ffffffffffffffffffffffffffffffffffffffff1673ffffffffffffffffffffffffffffffffffffffff16815260200190815260200160002060008373ffffffffffffffffffffffffffffffffffffffff1673ffffffffffffffffffffffffffffffffffffffff16815260200190815260200160002054905092915050565b60011515600660008473ffffffffffffffffffffffffffffffffffffffff1673ffffffffffffffffffffffffffffffffffffffff16815260200190815260200160002060009054906101000a900460ff16151514610da4576040517f08c379a0000000000000000000000000000000000000000000000000000000008152600401610d9b90611e62565b60405180910390fd5b60008111610de7576040517f08c379a0000000000000000000000000000000000000000000000000000000008152600401610dde90611ef4565b60405180910390fd5b8060076000828254610df99190611c42565b92505081905550610e0a3082611711565b5050565b610e166115cd565b600073ffffffffffffffffffffffffffffffffffffffff168173ffffffffffffffffffffffffffffffffffffffff1603610e85576040517f08c379a0000000000000000000000000000000000000000000000000000000008152600401610e7c90611f86565b60405180910390fd5b610e8e8161164b565b50565b610e996115cd565b6000600660008373ffffffffffffffffffffffffffffffffffffffff1673ffffffffffffffffffffffffffffffffffffffff16815260200190815260200160002060006101000a81548160ff02191690831515021790555050565b60001515600660008473ffffffffffffffffffffffffffffffffffffffff1673ffffffffffffffffffffffffffffffffffffffff16815260200190815260200160002060009054906101000a900460ff16151514610f87576040517f08c379a0000000000000000000000000000000000000000000000000000000008152600401610f7e90611ff2565b60405180910390fd5b80610f906107e4565b11610fd0576040517f08c379a0000000000000000000000000000000000000000000000000000000008152600401610fc79061205e565b60405180910390fd5b662386f26fc1000081610fe3919061207e565b3411611024576040517f08c379a000000000000000000000000000000000000000000000000000000000815260040161101b9061210c565b60405180910390fd5b8160086000600c54815260200190815260200160002060006101000a81548173ffffffffffffffffffffffffffffffffffffffff021916908373ffffffffffffffffffffffffffffffffffffffff16021790555080600960008473ffffffffffffffffffffffffffffffffffffffff1673ffffffffffffffffffffffffffffffffffffffff1681526020019081526020016000208190555080600760008282546110ce9190611d74565b92505081905550600c60008154809291906110e890611da8565b91905055505050565b600033905090565b600073ffffffffffffffffffffffffffffffffffffffff168373ffffffffffffffffffffffffffffffffffffffff1603611168576040517f08c379a000000000000000000000000000000000000000000000000000000000815260040161115f9061219e565b60405180910390fd5b600073ffffffffffffffffffffffffffffffffffffffff168273ffffffffffffffffffffffffffffffffffffffff16036111d7576040517f08c379a00000000000000000000000000000000000000000000000000000000081526004016111ce90612230565b60405180910390fd5b80600160008573ffffffffffffffffffffffffffffffffffffffff1673ffffffffffffffffffffffffffffffffffffffff16815260200190815260200160002060008473ffffffffffffffffffffffffffffffffffffffff1673ffffffffffffffffffffffffffffffffffffffff168152602001908152602001600020819055508173ffffffffffffffffffffffffffffffffffffffff168373ffffffffffffffffffffffffffffffffffffffff167f8c5be1e5ebec7d5bd14f71427d1e84f3dd0314c0f7b2291e5b200ac8c7c3b925836040516112b59190611a77565b60405180910390a3505050565b60006112ce8484610c8a565b90507fffffffffffffffffffffffffffffffffffffffffffffffffffffffffffffffff8114611348578181101561133a576040517f08c379a00000000000000000000000000000000000000000000000000000000081526004016113319061229c565b60405180910390fd5b61134784848484036110f9565b5b50505050565b600073ffffffffffffffffffffffffffffffffffffffff168373ffffffffffffffffffffffffffffffffffffffff16036113bd576040517f08c379a00000000000000000000000000000000000000000000000000000000081526004016113b49061232e565b60405180910390fd5b600073ffffffffffffffffffffffffffffffffffffffff168273ffffffffffffffffffffffffffffffffffffffff160361142c576040517f08c379a0000000000000000000000000000000000000000000000000000000008152600401611423906123c0565b60405180910390fd5b611437838383611870565b60008060008573ffffffffffffffffffffffffffffffffffffffff1673ffffffffffffffffffffffffffffffffffffffff168152602001908152602001600020549050818110156114bd576040517f08c379a00000000000000000000000000000000000000000000000000000000081526004016114b490612452565b60405180910390fd5b8181036000808673ffffffffffffffffffffffffffffffffffffffff1673ffffffffffffffffffffffffffffffffffffffff16815260200190815260200160002081905550816000808573ffffffffffffffffffffffffffffffffffffffff1673ffffffffffffffffffffffffffffffffffffffff16815260200190815260200160002060008282546115509190611c42565b925050819055508273ffffffffffffffffffffffffffffffffffffffff168473ffffffffffffffffffffffffffffffffffffffff167fddf252ad1be2c89b69c2b068fc378daa952ba7f163c4a11628f55a4df523b3ef846040516115b49190611a77565b60405180910390a36115c7848484611875565b50505050565b6115d56110f1565b73ffffffffffffffffffffffffffffffffffffffff166115f3610856565b73ffffffffffffffffffffffffffffffffffffffff1614611649576040517f08c379a0000000000000000000000000000000000000000000000000000000008152600401611640906124be565b60405180910390fd5b565b6000600560009054906101000a900473ffffffffffffffffffffffffffffffffffffffff16905081600560006101000a81548173ffffffffffffffffffffffffffffffffffffffff021916908373ffffffffffffffffffffffffffffffffffffffff1602179055508173ffffffffffffffffffffffffffffffffffffffff168173ffffffffffffffffffffffffffffffffffffffff167f8be0079c531659141344cd1fd0a4f28419497f9722a3daafe3b4186f6b6457e060405160405180910390a35050565b600073ffffffffffffffffffffffffffffffffffffffff168273ffffffffffffffffffffffffffffffffffffffff1603611780576040517f08c379a00000000000000000000000000000000000000000000000000000000081526004016117779061252a565b60405180910390fd5b61178c60008383611870565b806002600082825461179e9190611c42565b92505081905550806000808473ffffffffffffffffffffffffffffffffffffffff1673ffffffffffffffffffffffffffffffffffffffff16815260200190815260200160002060008282546117f39190611c42565b925050819055508173ffffffffffffffffffffffffffffffffffffffff16600073ffffffffffffffffffffffffffffffffffffffff167fddf252ad1be2c89b69c2b068fc378daa952ba7f163c4a11628f55a4df523b3ef836040516118589190611a77565b60405180910390a361186c60008383611875565b5050565b505050565b505050565b600081519050919050565b600082825260208201905092915050565b60005b838110156118b4578082015181840152602081019050611899565b60008484015250505050565b6000601f19601f8301169050919050565b60006118dc8261187a565b6118e68185611885565b93506118f6818560208601611896565b6118ff816118c0565b840191505092915050565b6000602082019050818103600083015261192481846118d1565b905092915050565b600080fd5b600073ffffffffffffffffffffffffffffffffffffffff82169050919050565b600061195c82611931565b9050919050565b61196c81611951565b811461197757600080fd5b50565b60008135905061198981611963565b92915050565b6000819050919050565b6119a28161198f565b81146119ad57600080fd5b50565b6000813590506119bf81611999565b92915050565b600080604083850312156119dc576119db61192c565b5b60006119ea8582860161197a565b92505060206119fb858286016119b0565b9150509250929050565b60008115159050919050565b611a1a81611a05565b82525050565b6000602082019050611a356000830184611a11565b92915050565b600060208284031215611a5157611a5061192c565b5b6000611a5f8482850161197a565b91505092915050565b611a718161198f565b82525050565b6000602082019050611a8c6000830184611a68565b92915050565b600080600060608486031215611aab57611aaa61192c565b5b6000611ab98682870161197a565b9350506020611aca8682870161197a565b9250506040611adb868287016119b0565b9150509250925092565b600060208284031215611afb57611afa61192c565b5b6000611b09848285016119b0565b91505092915050565b611b1b81611951565b82525050565b6000602082019050611b366000830184611b12565b92915050565b600060ff82169050919050565b611b5281611b3c565b82525050565b6000602082019050611b6d6000830184611b49565b92915050565b60008060408385031215611b8a57611b8961192c565b5b6000611b988582860161197a565b9250506020611ba98582860161197a565b9150509250929050565b7f4e487b7100000000000000000000000000000000000000000000000000000000600052602260045260246000fd5b60006002820490506001821680611bfa57607f821691505b602082108103611c0d57611c0c611bb3565b5b50919050565b7f4e487b7100000000000000000000000000000000000000000000000000000000600052601160045260246000fd5b6000611c4d8261198f565b9150611c588361198f565b9250828201905080821115611c7057611c6f611c13565b5b92915050565b7f45524332303a2064656372656173656420616c6c6f77616e63652062656c6f7760008201527f207a65726f000000000000000000000000000000000000000000000000000000602082015250565b6000611cd2602583611885565b9150611cdd82611c76565b604082019050919050565b60006020820190508181036000830152611d0181611cc5565b9050919050565b7f43616e206f6e6c792062652073686970706564206279206d616e616765720000600082015250565b6000611d3e601e83611885565b9150611d4982611d08565b602082019050919050565b60006020820190508181036000830152611d6d81611d31565b9050919050565b6000611d7f8261198f565b9150611d8a8361198f565b9250828203905081811115611da257611da1611c13565b5b92915050565b6000611db38261198f565b91507fffffffffffffffffffffffffffffffffffffffffffffffffffffffffffffffff8203611de557611de4611c13565b5b600182019050919050565b7f437573746f6d65722063616e206e6f7420616c7465722073746f636b20696e2060008201527f696e76656e746f72790000000000000000000000000000000000000000000000602082015250565b6000611e4c602983611885565b9150611e5782611df0565b604082019050919050565b60006020820190508181036000830152611e7b81611e3f565b9050919050565b7f54686520666163746f727920686173206e6f742070726f64756365642074686560008201527f2073746f636b2079657400000000000000000000000000000000000000000000602082015250565b6000611ede602a83611885565b9150611ee982611e82565b604082019050919050565b60006020820190508181036000830152611f0d81611ed1565b9050919050565b7f4f776e61626c653a206e6577206f776e657220697320746865207a65726f206160008201527f6464726573730000000000000000000000000000000000000000000000000000602082015250565b6000611f70602683611885565b9150611f7b82611f14565b604082019050919050565b60006020820190508181036000830152611f9f81611f63565b9050919050565b7f4f7264657265722073686f756c64206e6f742062652061206d616e6167657200600082015250565b6000611fdc601f83611885565b9150611fe782611fa6565b602082019050919050565b6000602082019050818103600083015261200b81611fcf565b9050919050565b7f4e6f7420656e6f7567682073746f636b00000000000000000000000000000000600082015250565b6000612048601083611885565b915061205382612012565b602082019050919050565b600060208201905081810360008301526120778161203b565b9050919050565b60006120898261198f565b91506120948361198f565b92508282026120a28161198f565b915082820484148315176120b9576120b8611c13565b5b5092915050565b7f4e6f7420656e6f7567682066756e647300000000000000000000000000000000600082015250565b60006120f6601083611885565b9150612101826120c0565b602082019050919050565b60006020820190508181036000830152612125816120e9565b9050919050565b7f45524332303a20617070726f76652066726f6d20746865207a65726f2061646460008201527f7265737300000000000000000000000000000000000000000000000000000000602082015250565b6000612188602483611885565b91506121938261212c565b604082019050919050565b600060208201905081810360008301526121b78161217b565b9050919050565b7f45524332303a20617070726f766520746f20746865207a65726f20616464726560008201527f7373000000000000000000000000000000000000000000000000000000000000602082015250565b600061221a602283611885565b9150612225826121be565b604082019050919050565b600060208201905081810360008301526122498161220d565b9050919050565b7f45524332303a20696e73756666696369656e7420616c6c6f77616e6365000000600082015250565b6000612286601d83611885565b915061229182612250565b602082019050919050565b600060208201905081810360008301526122b581612279565b9050919050565b7f45524332303a207472616e736665722066726f6d20746865207a65726f20616460008201527f6472657373000000000000000000000000000000000000000000000000000000602082015250565b6000612318602583611885565b9150612323826122bc565b604082019050919050565b600060208201905081810360008301526123478161230b565b9050919050565b7f45524332303a207472616e7366657220746f20746865207a65726f206164647260008201527f6573730000000000000000000000000000000000000000000000000000000000602082015250565b60006123aa602383611885565b91506123b58261234e565b604082019050919050565b600060208201905081810360008301526123d98161239d565b9050919050565b7f45524332303a207472616e7366657220616d6f756e742065786365656473206260008201527f616c616e63650000000000000000000000000000000000000000000000000000602082015250565b600061243c602683611885565b9150612447826123e0565b604082019050919050565b6000602082019050818103600083015261246b8161242f565b9050919050565b7f4f776e61626c653a2063616c6c6572206973206e6f7420746865206f776e6572600082015250565b60006124a8602083611885565b91506124b382612472565b602082019050919050565b600060208201905081810360008301526124d78161249b565b9050919050565b7f45524332303a206d696e7420746f20746865207a65726f206164647265737300600082015250565b6000612514601f83611885565b915061251f826124de565b602082019050919050565b6000602082019050818103600083015261254381612507565b905091905056fea2646970667358221220466c9a55b6ad626bd8a1c49e422adc1b3226618adf876f3c4cc01b706936f3af64736f6c63430008110033",
  "linkReferences": {},
  "deployedLinkReferences": {}
}